{
  "_format": "hh-sol-artifact-1",
  "contractName": "Payment",
  "sourceName": "contracts/Payment.sol",
  "abi": [
    {
      "inputs": [],
      "stateMutability": "payable",
      "type": "constructor"
    },
    {
      "inputs": [],
      "name": "depositInContract",
      "outputs": [],
      "stateMutability": "payable",
      "type": "function"
    },
    {
      "inputs": [],
      "name": "getAllPaymentsHistory",
      "outputs": [
        {
          "components": [
            {
              "internalType": "address",
              "name": "to",
              "type": "address"
            },
            {
              "internalType": "uint256",
              "name": "amount",
              "type": "uint256"
            },
            {
              "internalType": "uint256",
              "name": "timestamp",
              "type": "uint256"
            }
          ],
          "internalType": "struct Payment.Pay[]",
          "name": "",
          "type": "tuple[]"
        }
      ],
      "stateMutability": "view",
      "type": "function"
    },
    {
      "inputs": [],
      "name": "getContractBal",
      "outputs": [
        {
          "internalType": "uint256",
          "name": "",
          "type": "uint256"
        }
      ],
      "stateMutability": "view",
      "type": "function"
    },
    {
      "inputs": [],
      "name": "getLastPayment",
      "outputs": [
        {
          "components": [
            {
              "internalType": "address",
              "name": "to",
              "type": "address"
            },
            {
              "internalType": "uint256",
              "name": "amount",
              "type": "uint256"
            },
            {
              "internalType": "uint256",
              "name": "timestamp",
              "type": "uint256"
            }
          ],
          "internalType": "struct Payment.Pay",
          "name": "",
          "type": "tuple"
        }
      ],
      "stateMutability": "view",
      "type": "function"
    },
    {
      "inputs": [
        {
          "internalType": "address",
          "name": "_address",
          "type": "address"
        }
      ],
      "name": "getPaymentHistoryByAddress",
      "outputs": [
        {
          "components": [
            {
              "internalType": "address",
              "name": "to",
              "type": "address"
            },
            {
              "internalType": "uint256",
              "name": "amount",
              "type": "uint256"
            },
            {
              "internalType": "uint256",
              "name": "timestamp",
              "type": "uint256"
            }
          ],
          "internalType": "struct Payment.Pay",
          "name": "",
          "type": "tuple"
        }
      ],
      "stateMutability": "view",
      "type": "function"
    },
    {
      "inputs": [
        {
          "internalType": "address payable",
          "name": "_to",
          "type": "address"
        },
        {
          "internalType": "uint256",
          "name": "_amount",
          "type": "uint256"
        }
      ],
      "name": "pay",
      "outputs": [],
      "stateMutability": "payable",
      "type": "function"
    },
    {
      "inputs": [
        {
          "internalType": "uint256",
          "name": "",
          "type": "uint256"
        }
      ],
      "name": "paymentsArray",
      "outputs": [
        {
          "internalType": "address",
          "name": "to",
          "type": "address"
        },
        {
          "internalType": "uint256",
          "name": "amount",
          "type": "uint256"
        },
        {
          "internalType": "uint256",
          "name": "timestamp",
          "type": "uint256"
        }
      ],
      "stateMutability": "view",
      "type": "function"
    },
    {
      "inputs": [
        {
          "internalType": "address",
          "name": "",
          "type": "address"
        }
      ],
      "name": "paymentsMap",
      "outputs": [
        {
          "internalType": "address",
          "name": "to",
          "type": "address"
        },
        {
          "internalType": "uint256",
          "name": "amount",
          "type": "uint256"
        },
        {
          "internalType": "uint256",
          "name": "timestamp",
          "type": "uint256"
        }
      ],
      "stateMutability": "view",
      "type": "function"
    },
    {
      "inputs": [],
      "name": "userBal",
      "outputs": [
        {
          "internalType": "uint256",
          "name": "",
          "type": "uint256"
        }
      ],
      "stateMutability": "view",
      "type": "function"
    }
  ],
  "bytecode": "0x60806040526200004f6040518060400160405280601281526020017f436f6e7374727563746f722063616c6c656400000000000000000000000000008152506200005560201b620008241760201c565b620001e9565b620000f5816040516024016200006c919062000162565b6040516020818303038152906040527f41304fac000000000000000000000000000000000000000000000000000000007bffffffffffffffffffffffffffffffffffffffffffffffffffffffff19166020820180517bffffffffffffffffffffffffffffffffffffffffffffffffffffffff8381831617835250505050620000f860201b60201c565b50565b60008151905060006a636f6e736f6c652e6c6f679050602083016000808483855afa5050505050565b60006200012e8262000186565b6200013a818562000191565b93506200014c818560208601620001a2565b6200015781620001d8565b840191505092915050565b600060208201905081810360008301526200017e818462000121565b905092915050565b600081519050919050565b600082825260208201905092915050565b60005b83811015620001c2578082015181840152602081019050620001a5565b83811115620001d2576000848401525b50505050565b6000601f19601f8301169050919050565b610f7880620001f96000396000f3fe6080604052600436106100865760003560e01c80639f755957116100595780639f7559571461013c578063c40768761461017b578063cb9b498314610197578063d7ccc2c3146101c2578063e75384b9146101ed57610086565b80632dd2f3991461008b5780635d9fa6fc146100ca5780638ebca1ef146100f5578063906b7fc714610132575b600080fd5b34801561009757600080fd5b506100b260048036038101906100ad9190610afc565b610218565b6040516100c193929190610c94565b60405180910390f35b3480156100d657600080fd5b506100df610272565b6040516100ec9190610d98565b60405180910390f35b34801561010157600080fd5b5061011c60048036038101906101179190610a97565b61027a565b6040516101299190610d7d565b60405180910390f35b61013a61033d565b005b34801561014857600080fd5b50610163600480360381019061015e9190610a97565b61037e565b60405161017293929190610c94565b60405180910390f35b61019560048036038101906101909190610ac0565b6103c8565b005b3480156101a357600080fd5b506101ac610661565b6040516101b99190610ccb565b60405180910390f35b3480156101ce57600080fd5b506101d761072a565b6040516101e49190610d7d565b60405180910390f35b3480156101f957600080fd5b50610202610805565b60405161020f9190610d98565b60405180910390f35b6000818154811061022857600080fd5b90600052602060002090600302016000915090508060000160009054906101000a900473ffffffffffffffffffffffffffffffffffffffff16908060010154908060020154905083565b600047905090565b610282610a21565b600160008373ffffffffffffffffffffffffffffffffffffffff1673ffffffffffffffffffffffffffffffffffffffff1681526020019081526020016000206040518060600160405290816000820160009054906101000a900473ffffffffffffffffffffffffffffffffffffffff1673ffffffffffffffffffffffffffffffffffffffff1673ffffffffffffffffffffffffffffffffffffffff168152602001600182015481526020016002820154815250509050919050565b61037c6040518060400160405280601a81526020017f4465706f736974206f66202573205375636365737366756c6c2e000000000000815250346108bd565b565b60016020528060005260406000206000915090508060000160009054906101000a900473ffffffffffffffffffffffffffffffffffffffff16908060010154908060020154905083565b600081116103d557600080fd5b3073ffffffffffffffffffffffffffffffffffffffff168273ffffffffffffffffffffffffffffffffffffffff16141561040e57600080fd5b80600160008473ffffffffffffffffffffffffffffffffffffffff1673ffffffffffffffffffffffffffffffffffffffff1681526020019081526020016000206001018190555042600160008473ffffffffffffffffffffffffffffffffffffffff1673ffffffffffffffffffffffffffffffffffffffff1681526020019081526020016000206002018190555081600160008473ffffffffffffffffffffffffffffffffffffffff1673ffffffffffffffffffffffffffffffffffffffff16815260200190815260200160002060000160006101000a81548173ffffffffffffffffffffffffffffffffffffffff021916908373ffffffffffffffffffffffffffffffffffffffff1602179055508173ffffffffffffffffffffffffffffffffffffffff166108fc829081150290604051600060405180830381858888f19350505050158015610563573d6000803e3d6000fd5b50600060405180606001604052808473ffffffffffffffffffffffffffffffffffffffff16815260200183815260200142815250908060018154018082558091505060019003906000526020600020906003020160009091909190915060008201518160000160006101000a81548173ffffffffffffffffffffffffffffffffffffffff021916908373ffffffffffffffffffffffffffffffffffffffff1602179055506020820151816001015560408201518160020155505061065d6040518060400160405280601881526020017f5061796d656e7420446f6e65206f6620257320746f20257300000000000000008152508284610959565b5050565b60606000805480602002602001604051908101604052809291908181526020016000905b8282101561072157838290600052602060002090600302016040518060600160405290816000820160009054906101000a900473ffffffffffffffffffffffffffffffffffffffff1673ffffffffffffffffffffffffffffffffffffffff1673ffffffffffffffffffffffffffffffffffffffff1681526020016001820154815260200160028201548152505081526020019060010190610685565b50505050905090565b610732610a21565b600060016000805490506107469190610e08565b8154811061077d577f4e487b7100000000000000000000000000000000000000000000000000000000600052603260045260246000fd5b90600052602060002090600302016040518060600160405290816000820160009054906101000a900473ffffffffffffffffffffffffffffffffffffffff1673ffffffffffffffffffffffffffffffffffffffff1673ffffffffffffffffffffffffffffffffffffffff16815260200160018201548152602001600282015481525050905090565b60003373ffffffffffffffffffffffffffffffffffffffff1631905090565b6108ba816040516024016108389190610ced565b6040516020818303038152906040527f41304fac000000000000000000000000000000000000000000000000000000007bffffffffffffffffffffffffffffffffffffffffffffffffffffffff19166020820180517bffffffffffffffffffffffffffffffffffffffffffffffffffffffff83818316178352505050506109f8565b50565b61095582826040516024016108d3929190610d0f565b6040516020818303038152906040527f9710a9d0000000000000000000000000000000000000000000000000000000007bffffffffffffffffffffffffffffffffffffffffffffffffffffffff19166020820180517bffffffffffffffffffffffffffffffffffffffffffffffffffffffff83818316178352505050506109f8565b5050565b6109f383838360405160240161097193929190610d3f565b6040516020818303038152906040527fe3849f79000000000000000000000000000000000000000000000000000000007bffffffffffffffffffffffffffffffffffffffffffffffffffffffff19166020820180517bffffffffffffffffffffffffffffffffffffffffffffffffffffffff83818316178352505050506109f8565b505050565b60008151905060006a636f6e736f6c652e6c6f679050602083016000808483855afa5050505050565b6040518060600160405280600073ffffffffffffffffffffffffffffffffffffffff16815260200160008152602001600081525090565b600081359050610a6781610efd565b92915050565b600081359050610a7c81610f14565b92915050565b600081359050610a9181610f2b565b92915050565b600060208284031215610aa957600080fd5b6000610ab784828501610a58565b91505092915050565b60008060408385031215610ad357600080fd5b6000610ae185828601610a6d565b9250506020610af285828601610a82565b9150509250929050565b600060208284031215610b0e57600080fd5b6000610b1c84828501610a82565b91505092915050565b6000610b318383610bf2565b60608301905092915050565b610b4681610e3c565b82525050565b610b5581610e3c565b82525050565b6000610b6682610dc3565b610b708185610de6565b9350610b7b83610db3565b8060005b83811015610bac578151610b938882610b25565b9750610b9e83610dd9565b925050600181019050610b7f565b5085935050505092915050565b6000610bc482610dce565b610bce8185610df7565b9350610bde818560208601610e8a565b610be781610eec565b840191505092915050565b606082016000820151610c086000850182610b3d565b506020820151610c1b6020850182610c76565b506040820151610c2e6040850182610c76565b50505050565b606082016000820151610c4a6000850182610b3d565b506020820151610c5d6020850182610c76565b506040820151610c706040850182610c76565b50505050565b610c7f81610e80565b82525050565b610c8e81610e80565b82525050565b6000606082019050610ca96000830186610b4c565b610cb66020830185610c85565b610cc36040830184610c85565b949350505050565b60006020820190508181036000830152610ce58184610b5b565b905092915050565b60006020820190508181036000830152610d078184610bb9565b905092915050565b60006040820190508181036000830152610d298185610bb9565b9050610d386020830184610c85565b9392505050565b60006060820190508181036000830152610d598186610bb9565b9050610d686020830185610c85565b610d756040830184610b4c565b949350505050565b6000606082019050610d926000830184610c34565b92915050565b6000602082019050610dad6000830184610c85565b92915050565b6000819050602082019050919050565b600081519050919050565b600081519050919050565b6000602082019050919050565b600082825260208201905092915050565b600082825260208201905092915050565b6000610e1382610e80565b9150610e1e83610e80565b925082821015610e3157610e30610ebd565b5b828203905092915050565b6000610e4782610e60565b9050919050565b6000610e5982610e60565b9050919050565b600073ffffffffffffffffffffffffffffffffffffffff82169050919050565b6000819050919050565b60005b83811015610ea8578082015181840152602081019050610e8d565b83811115610eb7576000848401525b50505050565b7f4e487b7100000000000000000000000000000000000000000000000000000000600052601160045260246000fd5b6000601f19601f8301169050919050565b610f0681610e3c565b8114610f1157600080fd5b50565b610f1d81610e4e565b8114610f2857600080fd5b50565b610f3481610e80565b8114610f3f57600080fd5b5056fea264697066735822122016d24debf2fdd997af19cc7791906ce420e9f7f0420954c9477c31837e23ef0f64736f6c63430008040033",
  "linkReferences": {},
  "deployedLinkReferences": {}
}