{
  "_format": "hh-sol-artifact-1",
  "contractName": "Zeno",
  "sourceName": "contracts/Zeno.sol",
  "abi": [
    {
      "inputs": [],
      "stateMutability": "nonpayable",
      "type": "constructor"
    },
    {
      "anonymous": false,
      "inputs": [
        {
          "indexed": true,
          "internalType": "address",
          "name": "owner",
          "type": "address"
        },
        {
          "indexed": true,
          "internalType": "address",
          "name": "spender",
          "type": "address"
        },
        {
          "indexed": false,
          "internalType": "uint256",
          "name": "value",
          "type": "uint256"
        }
      ],
      "name": "Approval",
      "type": "event"
    },
    {
      "anonymous": false,
      "inputs": [
        {
          "indexed": true,
          "internalType": "address",
          "name": "previousOwner",
          "type": "address"
        },
        {
          "indexed": true,
          "internalType": "address",
          "name": "newOwner",
          "type": "address"
        }
      ],
      "name": "OwnershipTransferred",
      "type": "event"
    },
    {
      "anonymous": false,
      "inputs": [
        {
          "indexed": true,
          "internalType": "address",
          "name": "from",
          "type": "address"
        },
        {
          "indexed": true,
          "internalType": "address",
          "name": "to",
          "type": "address"
        },
        {
          "indexed": false,
          "internalType": "uint256",
          "name": "value",
          "type": "uint256"
        }
      ],
      "name": "Transfer",
      "type": "event"
    },
    {
      "inputs": [
        {
          "internalType": "address",
          "name": "owner",
          "type": "address"
        },
        {
          "internalType": "address",
          "name": "spender",
          "type": "address"
        }
      ],
      "name": "allowance",
      "outputs": [
        {
          "internalType": "uint256",
          "name": "",
          "type": "uint256"
        }
      ],
      "stateMutability": "view",
      "type": "function"
    },
    {
      "inputs": [
        {
          "internalType": "address",
          "name": "spender",
          "type": "address"
        },
        {
          "internalType": "uint256",
          "name": "amount",
          "type": "uint256"
        }
      ],
      "name": "approve",
      "outputs": [
        {
          "internalType": "bool",
          "name": "",
          "type": "bool"
        }
      ],
      "stateMutability": "nonpayable",
      "type": "function"
    },
    {
      "inputs": [
        {
          "internalType": "address",
          "name": "account",
          "type": "address"
        }
      ],
      "name": "balanceOf",
      "outputs": [
        {
          "internalType": "uint256",
          "name": "",
          "type": "uint256"
        }
      ],
      "stateMutability": "view",
      "type": "function"
    },
    {
      "inputs": [
        {
          "internalType": "uint256",
          "name": "amount",
          "type": "uint256"
        }
      ],
      "name": "burn",
      "outputs": [],
      "stateMutability": "nonpayable",
      "type": "function"
    },
    {
      "inputs": [
        {
          "internalType": "address",
          "name": "account",
          "type": "address"
        },
        {
          "internalType": "uint256",
          "name": "amount",
          "type": "uint256"
        }
      ],
      "name": "burnFrom",
      "outputs": [],
      "stateMutability": "nonpayable",
      "type": "function"
    },
    {
      "inputs": [],
      "name": "decimals",
      "outputs": [
        {
          "internalType": "uint8",
          "name": "",
          "type": "uint8"
        }
      ],
      "stateMutability": "view",
      "type": "function"
    },
    {
      "inputs": [
        {
          "internalType": "address",
          "name": "spender",
          "type": "address"
        },
        {
          "internalType": "uint256",
          "name": "subtractedValue",
          "type": "uint256"
        }
      ],
      "name": "decreaseAllowance",
      "outputs": [
        {
          "internalType": "bool",
          "name": "",
          "type": "bool"
        }
      ],
      "stateMutability": "nonpayable",
      "type": "function"
    },
    {
      "inputs": [],
      "name": "getTotalSupply",
      "outputs": [
        {
          "internalType": "uint256",
          "name": "",
          "type": "uint256"
        }
      ],
      "stateMutability": "view",
      "type": "function"
    },
    {
      "inputs": [
        {
          "internalType": "address",
          "name": "user",
          "type": "address"
        }
      ],
      "name": "getUserBalance",
      "outputs": [
        {
          "internalType": "uint256",
          "name": "",
          "type": "uint256"
        }
      ],
      "stateMutability": "view",
      "type": "function"
    },
    {
      "inputs": [
        {
          "internalType": "address",
          "name": "spender",
          "type": "address"
        },
        {
          "internalType": "uint256",
          "name": "addedValue",
          "type": "uint256"
        }
      ],
      "name": "increaseAllowance",
      "outputs": [
        {
          "internalType": "bool",
          "name": "",
          "type": "bool"
        }
      ],
      "stateMutability": "nonpayable",
      "type": "function"
    },
    {
      "inputs": [],
      "name": "name",
      "outputs": [
        {
          "internalType": "string",
          "name": "",
          "type": "string"
        }
      ],
      "stateMutability": "view",
      "type": "function"
    },
    {
      "inputs": [],
      "name": "owner",
      "outputs": [
        {
          "internalType": "address",
          "name": "",
          "type": "address"
        }
      ],
      "stateMutability": "view",
      "type": "function"
    },
    {
      "inputs": [],
      "name": "renounceOwnership",
      "outputs": [],
      "stateMutability": "nonpayable",
      "type": "function"
    },
    {
      "inputs": [],
      "name": "symbol",
      "outputs": [
        {
          "internalType": "string",
          "name": "",
          "type": "string"
        }
      ],
      "stateMutability": "view",
      "type": "function"
    },
    {
      "inputs": [],
      "name": "totalSupply",
      "outputs": [
        {
          "internalType": "uint256",
          "name": "",
          "type": "uint256"
        }
      ],
      "stateMutability": "view",
      "type": "function"
    },
    {
      "inputs": [
        {
          "internalType": "address",
          "name": "recipient",
          "type": "address"
        },
        {
          "internalType": "uint256",
          "name": "amount",
          "type": "uint256"
        }
      ],
      "name": "transfer",
      "outputs": [
        {
          "internalType": "bool",
          "name": "",
          "type": "bool"
        }
      ],
      "stateMutability": "nonpayable",
      "type": "function"
    },
    {
      "inputs": [
        {
          "internalType": "address",
          "name": "sender",
          "type": "address"
        },
        {
          "internalType": "address",
          "name": "recipient",
          "type": "address"
        },
        {
          "internalType": "uint256",
          "name": "amount",
          "type": "uint256"
        }
      ],
      "name": "transferFrom",
      "outputs": [
        {
          "internalType": "bool",
          "name": "",
          "type": "bool"
        }
      ],
      "stateMutability": "nonpayable",
      "type": "function"
    },
    {
      "inputs": [
        {
          "internalType": "address",
          "name": "newOwner",
          "type": "address"
        }
      ],
      "name": "transferOwnership",
      "outputs": [],
      "stateMutability": "nonpayable",
      "type": "function"
    },
    {
      "inputs": [
        {
          "internalType": "address",
          "name": "to",
          "type": "address"
        },
        {
          "internalType": "uint256",
          "name": "amount",
          "type": "uint256"
        }
      ],
      "name": "transferTo",
      "outputs": [
        {
          "internalType": "bool",
          "name": "success",
          "type": "bool"
        }
      ],
      "stateMutability": "nonpayable",
      "type": "function"
    }
  ],
  "bytecode": "0x60806040523480156200001157600080fd5b506040518060400160405280600481526020017f5a656e6f000000000000000000000000000000000000000000000000000000008152506040518060400160405280600481526020017f5a454e4f0000000000000000000000000000000000000000000000000000000081525081600390805190602001906200009692919062000373565b508060049080519060200190620000af92919062000373565b505050620000d2620000c66200011960201b60201c565b6200012160201b60201c565b6200011330620000e7620001e760201b60201c565b600a620000f5919062000563565b6402540be400620001079190620006a0565b620001f060201b60201c565b620007e2565b600033905090565b6000600560009054906101000a900473ffffffffffffffffffffffffffffffffffffffff16905081600560006101000a81548173ffffffffffffffffffffffffffffffffffffffff021916908373ffffffffffffffffffffffffffffffffffffffff1602179055508173ffffffffffffffffffffffffffffffffffffffff168173ffffffffffffffffffffffffffffffffffffffff167f8be0079c531659141344cd1fd0a4f28419497f9722a3daafe3b4186f6b6457e060405160405180910390a35050565b60006012905090565b600073ffffffffffffffffffffffffffffffffffffffff168273ffffffffffffffffffffffffffffffffffffffff16141562000263576040517f08c379a00000000000000000000000000000000000000000000000000000000081526004016200025a906200045b565b60405180910390fd5b62000277600083836200036960201b60201c565b80600260008282546200028b9190620004ab565b92505081905550806000808473ffffffffffffffffffffffffffffffffffffffff1673ffffffffffffffffffffffffffffffffffffffff1681526020019081526020016000206000828254620002e29190620004ab565b925050819055508173ffffffffffffffffffffffffffffffffffffffff16600073ffffffffffffffffffffffffffffffffffffffff167fddf252ad1be2c89b69c2b068fc378daa952ba7f163c4a11628f55a4df523b3ef836040516200034991906200047d565b60405180910390a362000365600083836200036e60201b60201c565b5050565b505050565b505050565b828054620003819062000718565b90600052602060002090601f016020900481019282620003a55760008555620003f1565b82601f10620003c057805160ff1916838001178555620003f1565b82800160010185558215620003f1579182015b82811115620003f0578251825591602001919060010190620003d3565b5b50905062000400919062000404565b5090565b5b808211156200041f57600081600090555060010162000405565b5090565b600062000432601f836200049a565b91506200043f82620007b9565b602082019050919050565b620004558162000701565b82525050565b60006020820190508181036000830152620004768162000423565b9050919050565b60006020820190506200049460008301846200044a565b92915050565b600082825260208201905092915050565b6000620004b88262000701565b9150620004c58362000701565b9250827fffffffffffffffffffffffffffffffffffffffffffffffffffffffffffffffff03821115620004fd57620004fc6200074e565b5b828201905092915050565b6000808291508390505b60018511156200055a578086048111156200053257620005316200074e565b5b6001851615620005425780820291505b80810290506200055285620007ac565b945062000512565b94509492505050565b6000620005708262000701565b91506200057d836200070b565b9250620005ac7fffffffffffffffffffffffffffffffffffffffffffffffffffffffffffffffff8484620005b4565b905092915050565b600082620005c6576001905062000699565b81620005d6576000905062000699565b8160018114620005ef5760028114620005fa5762000630565b600191505062000699565b60ff8411156200060f576200060e6200074e565b5b8360020a9150848211156200062957620006286200074e565b5b5062000699565b5060208310610133831016604e8410600b84101617156200066a5782820a9050838111156200066457620006636200074e565b5b62000699565b62000679848484600162000508565b925090508184048111156200069357620006926200074e565b5b81810290505b9392505050565b6000620006ad8262000701565b9150620006ba8362000701565b9250817fffffffffffffffffffffffffffffffffffffffffffffffffffffffffffffffff0483118215151615620006f657620006f56200074e565b5b828202905092915050565b6000819050919050565b600060ff82169050919050565b600060028204905060018216806200073157607f821691505b602082108114156200074857620007476200077d565b5b50919050565b7f4e487b7100000000000000000000000000000000000000000000000000000000600052601160045260246000fd5b7f4e487b7100000000000000000000000000000000000000000000000000000000600052602260045260246000fd5b60008160011c9050919050565b7f45524332303a206d696e7420746f20746865207a65726f206164647265737300600082015250565b611d5080620007f26000396000f3fe608060405234801561001057600080fd5b50600436106101215760003560e01c806370a08231116100ad578063a457c2d711610071578063a457c2d71461031e578063a9059cbb1461034e578063c4e41b221461037e578063dd62ed3e1461039c578063f2fde38b146103cc57610121565b806370a082311461028c578063715018a6146102bc57806379cc6790146102c65780638da5cb5b146102e257806395d89b411461030057610121565b80632ccb1b30116100f45780632ccb1b30146101c2578063313ce567146101f2578063395093511461021057806342966c6814610240578063477348921461025c57610121565b806306fdde0314610126578063095ea7b31461014457806318160ddd1461017457806323b872dd14610192575b600080fd5b61012e6103e8565b60405161013b91906115b7565b60405180910390f35b61015e60048036038101906101599190611303565b61047a565b60405161016b919061159c565b60405180910390f35b61017c610498565b6040516101899190611759565b60405180910390f35b6101ac60048036038101906101a791906112b4565b6104a2565b6040516101b9919061159c565b60405180910390f35b6101dc60048036038101906101d79190611303565b61059a565b6040516101e9919061159c565b60405180910390f35b6101fa6105b1565b6040516102079190611774565b60405180910390f35b61022a60048036038101906102259190611303565b6105ba565b604051610237919061159c565b60405180910390f35b61025a6004803603810190610255919061133f565b610666565b005b6102766004803603810190610271919061124f565b61067a565b6040516102839190611759565b60405180910390f35b6102a660048036038101906102a1919061124f565b61068c565b6040516102b39190611759565b60405180910390f35b6102c46106d4565b005b6102e060048036038101906102db9190611303565b61075c565b005b6102ea6107d7565b6040516102f79190611581565b60405180910390f35b610308610801565b60405161031591906115b7565b60405180910390f35b61033860048036038101906103339190611303565b610893565b604051610345919061159c565b60405180910390f35b61036860048036038101906103639190611303565b61097e565b604051610375919061159c565b60405180910390f35b61038661099c565b6040516103939190611759565b60405180910390f35b6103b660048036038101906103b19190611278565b6109ab565b6040516103c39190611759565b60405180910390f35b6103e660048036038101906103e1919061124f565b610a32565b005b6060600380546103f7906118bd565b80601f0160208091040260200160405190810160405280929190818152602001828054610423906118bd565b80156104705780601f1061044557610100808354040283529160200191610470565b820191906000526020600020905b81548152906001019060200180831161045357829003601f168201915b5050505050905090565b600061048e610487610b2a565b8484610b32565b6001905092915050565b6000600254905090565b60006104af848484610cfd565b6000600160008673ffffffffffffffffffffffffffffffffffffffff1673ffffffffffffffffffffffffffffffffffffffff16815260200190815260200160002060006104fa610b2a565b73ffffffffffffffffffffffffffffffffffffffff1673ffffffffffffffffffffffffffffffffffffffff1681526020019081526020016000205490508281101561057a576040517f08c379a000000000000000000000000000000000000000000000000000000000815260040161057190611679565b60405180910390fd5b61058e85610586610b2a565b858403610b32565b60019150509392505050565b60006105a7308484610cfd565b6001905092915050565b60006012905090565b600061065c6105c7610b2a565b8484600160006105d5610b2a565b73ffffffffffffffffffffffffffffffffffffffff1673ffffffffffffffffffffffffffffffffffffffff16815260200190815260200160002060008873ffffffffffffffffffffffffffffffffffffffff1673ffffffffffffffffffffffffffffffffffffffff1681526020019081526020016000205461065791906117ab565b610b32565b6001905092915050565b610677610671610b2a565b82610f7e565b50565b60006106858261068c565b9050919050565b60008060008373ffffffffffffffffffffffffffffffffffffffff1673ffffffffffffffffffffffffffffffffffffffff168152602001908152602001600020549050919050565b6106dc610b2a565b73ffffffffffffffffffffffffffffffffffffffff166106fa6107d7565b73ffffffffffffffffffffffffffffffffffffffff1614610750576040517f08c379a000000000000000000000000000000000000000000000000000000000815260040161074790611699565b60405180910390fd5b61075a6000611155565b565b600061076f8361076a610b2a565b6109ab565b9050818110156107b4576040517f08c379a00000000000000000000000000000000000000000000000000000000081526004016107ab906116b9565b60405180910390fd5b6107c8836107c0610b2a565b848403610b32565b6107d28383610f7e565b505050565b6000600560009054906101000a900473ffffffffffffffffffffffffffffffffffffffff16905090565b606060048054610810906118bd565b80601f016020809104026020016040519081016040528092919081815260200182805461083c906118bd565b80156108895780601f1061085e57610100808354040283529160200191610889565b820191906000526020600020905b81548152906001019060200180831161086c57829003601f168201915b5050505050905090565b600080600160006108a2610b2a565b73ffffffffffffffffffffffffffffffffffffffff1673ffffffffffffffffffffffffffffffffffffffff16815260200190815260200160002060008573ffffffffffffffffffffffffffffffffffffffff1673ffffffffffffffffffffffffffffffffffffffff1681526020019081526020016000205490508281101561095f576040517f08c379a000000000000000000000000000000000000000000000000000000000815260040161095690611739565b60405180910390fd5b61097361096a610b2a565b85858403610b32565b600191505092915050565b600061099261098b610b2a565b8484610cfd565b6001905092915050565b60006109a6610498565b905090565b6000600160008473ffffffffffffffffffffffffffffffffffffffff1673ffffffffffffffffffffffffffffffffffffffff16815260200190815260200160002060008373ffffffffffffffffffffffffffffffffffffffff1673ffffffffffffffffffffffffffffffffffffffff16815260200190815260200160002054905092915050565b610a3a610b2a565b73ffffffffffffffffffffffffffffffffffffffff16610a586107d7565b73ffffffffffffffffffffffffffffffffffffffff1614610aae576040517f08c379a0000000000000000000000000000000000000000000000000000000008152600401610aa590611699565b60405180910390fd5b600073ffffffffffffffffffffffffffffffffffffffff168173ffffffffffffffffffffffffffffffffffffffff161415610b1e576040517f08c379a0000000000000000000000000000000000000000000000000000000008152600401610b1590611619565b60405180910390fd5b610b2781611155565b50565b600033905090565b600073ffffffffffffffffffffffffffffffffffffffff168373ffffffffffffffffffffffffffffffffffffffff161415610ba2576040517f08c379a0000000000000000000000000000000000000000000000000000000008152600401610b9990611719565b60405180910390fd5b600073ffffffffffffffffffffffffffffffffffffffff168273ffffffffffffffffffffffffffffffffffffffff161415610c12576040517f08c379a0000000000000000000000000000000000000000000000000000000008152600401610c0990611639565b60405180910390fd5b80600160008573ffffffffffffffffffffffffffffffffffffffff1673ffffffffffffffffffffffffffffffffffffffff16815260200190815260200160002060008473ffffffffffffffffffffffffffffffffffffffff1673ffffffffffffffffffffffffffffffffffffffff168152602001908152602001600020819055508173ffffffffffffffffffffffffffffffffffffffff168373ffffffffffffffffffffffffffffffffffffffff167f8c5be1e5ebec7d5bd14f71427d1e84f3dd0314c0f7b2291e5b200ac8c7c3b92583604051610cf09190611759565b60405180910390a3505050565b600073ffffffffffffffffffffffffffffffffffffffff168373ffffffffffffffffffffffffffffffffffffffff161415610d6d576040517f08c379a0000000000000000000000000000000000000000000000000000000008152600401610d64906116f9565b60405180910390fd5b600073ffffffffffffffffffffffffffffffffffffffff168273ffffffffffffffffffffffffffffffffffffffff161415610ddd576040517f08c379a0000000000000000000000000000000000000000000000000000000008152600401610dd4906115d9565b60405180910390fd5b610de883838361121b565b60008060008573ffffffffffffffffffffffffffffffffffffffff1673ffffffffffffffffffffffffffffffffffffffff16815260200190815260200160002054905081811015610e6e576040517f08c379a0000000000000000000000000000000000000000000000000000000008152600401610e6590611659565b60405180910390fd5b8181036000808673ffffffffffffffffffffffffffffffffffffffff1673ffffffffffffffffffffffffffffffffffffffff16815260200190815260200160002081905550816000808573ffffffffffffffffffffffffffffffffffffffff1673ffffffffffffffffffffffffffffffffffffffff1681526020019081526020016000206000828254610f0191906117ab565b925050819055508273ffffffffffffffffffffffffffffffffffffffff168473ffffffffffffffffffffffffffffffffffffffff167fddf252ad1be2c89b69c2b068fc378daa952ba7f163c4a11628f55a4df523b3ef84604051610f659190611759565b60405180910390a3610f78848484611220565b50505050565b600073ffffffffffffffffffffffffffffffffffffffff168273ffffffffffffffffffffffffffffffffffffffff161415610fee576040517f08c379a0000000000000000000000000000000000000000000000000000000008152600401610fe5906116d9565b60405180910390fd5b610ffa8260008361121b565b60008060008473ffffffffffffffffffffffffffffffffffffffff1673ffffffffffffffffffffffffffffffffffffffff16815260200190815260200160002054905081811015611080576040517f08c379a0000000000000000000000000000000000000000000000000000000008152600401611077906115f9565b60405180910390fd5b8181036000808573ffffffffffffffffffffffffffffffffffffffff1673ffffffffffffffffffffffffffffffffffffffff1681526020019081526020016000208190555081600260008282546110d79190611801565b92505081905550600073ffffffffffffffffffffffffffffffffffffffff168373ffffffffffffffffffffffffffffffffffffffff167fddf252ad1be2c89b69c2b068fc378daa952ba7f163c4a11628f55a4df523b3ef8460405161113c9190611759565b60405180910390a361115083600084611220565b505050565b6000600560009054906101000a900473ffffffffffffffffffffffffffffffffffffffff16905081600560006101000a81548173ffffffffffffffffffffffffffffffffffffffff021916908373ffffffffffffffffffffffffffffffffffffffff1602179055508173ffffffffffffffffffffffffffffffffffffffff168173ffffffffffffffffffffffffffffffffffffffff167f8be0079c531659141344cd1fd0a4f28419497f9722a3daafe3b4186f6b6457e060405160405180910390a35050565b505050565b505050565b60008135905061123481611cec565b92915050565b60008135905061124981611d03565b92915050565b60006020828403121561126157600080fd5b600061126f84828501611225565b91505092915050565b6000806040838503121561128b57600080fd5b600061129985828601611225565b92505060206112aa85828601611225565b9150509250929050565b6000806000606084860312156112c957600080fd5b60006112d786828701611225565b93505060206112e886828701611225565b92505060406112f98682870161123a565b9150509250925092565b6000806040838503121561131657600080fd5b600061132485828601611225565b92505060206113358582860161123a565b9150509250929050565b60006020828403121561135157600080fd5b600061135f8482850161123a565b91505092915050565b61137181611835565b82525050565b61138081611847565b82525050565b60006113918261178f565b61139b818561179a565b93506113ab81856020860161188a565b6113b48161194d565b840191505092915050565b60006113cc60238361179a565b91506113d78261195e565b604082019050919050565b60006113ef60228361179a565b91506113fa826119ad565b604082019050919050565b600061141260268361179a565b915061141d826119fc565b604082019050919050565b600061143560228361179a565b915061144082611a4b565b604082019050919050565b600061145860268361179a565b915061146382611a9a565b604082019050919050565b600061147b60288361179a565b915061148682611ae9565b604082019050919050565b600061149e60208361179a565b91506114a982611b38565b602082019050919050565b60006114c160248361179a565b91506114cc82611b61565b604082019050919050565b60006114e460218361179a565b91506114ef82611bb0565b604082019050919050565b600061150760258361179a565b915061151282611bff565b604082019050919050565b600061152a60248361179a565b915061153582611c4e565b604082019050919050565b600061154d60258361179a565b915061155882611c9d565b604082019050919050565b61156c81611873565b82525050565b61157b8161187d565b82525050565b60006020820190506115966000830184611368565b92915050565b60006020820190506115b16000830184611377565b92915050565b600060208201905081810360008301526115d18184611386565b905092915050565b600060208201905081810360008301526115f2816113bf565b9050919050565b60006020820190508181036000830152611612816113e2565b9050919050565b6000602082019050818103600083015261163281611405565b9050919050565b6000602082019050818103600083015261165281611428565b9050919050565b600060208201905081810360008301526116728161144b565b9050919050565b600060208201905081810360008301526116928161146e565b9050919050565b600060208201905081810360008301526116b281611491565b9050919050565b600060208201905081810360008301526116d2816114b4565b9050919050565b600060208201905081810360008301526116f2816114d7565b9050919050565b60006020820190508181036000830152611712816114fa565b9050919050565b600060208201905081810360008301526117328161151d565b9050919050565b6000602082019050818103600083015261175281611540565b9050919050565b600060208201905061176e6000830184611563565b92915050565b60006020820190506117896000830184611572565b92915050565b600081519050919050565b600082825260208201905092915050565b60006117b682611873565b91506117c183611873565b9250827fffffffffffffffffffffffffffffffffffffffffffffffffffffffffffffffff038211156117f6576117f56118ef565b5b828201905092915050565b600061180c82611873565b915061181783611873565b92508282101561182a576118296118ef565b5b828203905092915050565b600061184082611853565b9050919050565b60008115159050919050565b600073ffffffffffffffffffffffffffffffffffffffff82169050919050565b6000819050919050565b600060ff82169050919050565b60005b838110156118a857808201518184015260208101905061188d565b838111156118b7576000848401525b50505050565b600060028204905060018216806118d557607f821691505b602082108114156118e9576118e861191e565b5b50919050565b7f4e487b7100000000000000000000000000000000000000000000000000000000600052601160045260246000fd5b7f4e487b7100000000000000000000000000000000000000000000000000000000600052602260045260246000fd5b6000601f19601f8301169050919050565b7f45524332303a207472616e7366657220746f20746865207a65726f206164647260008201527f6573730000000000000000000000000000000000000000000000000000000000602082015250565b7f45524332303a206275726e20616d6f756e7420657863656564732062616c616e60008201527f6365000000000000000000000000000000000000000000000000000000000000602082015250565b7f4f776e61626c653a206e6577206f776e657220697320746865207a65726f206160008201527f6464726573730000000000000000000000000000000000000000000000000000602082015250565b7f45524332303a20617070726f766520746f20746865207a65726f20616464726560008201527f7373000000000000000000000000000000000000000000000000000000000000602082015250565b7f45524332303a207472616e7366657220616d6f756e742065786365656473206260008201527f616c616e63650000000000000000000000000000000000000000000000000000602082015250565b7f45524332303a207472616e7366657220616d6f756e742065786365656473206160008201527f6c6c6f77616e6365000000000000000000000000000000000000000000000000602082015250565b7f4f776e61626c653a2063616c6c6572206973206e6f7420746865206f776e6572600082015250565b7f45524332303a206275726e20616d6f756e74206578636565647320616c6c6f7760008201527f616e636500000000000000000000000000000000000000000000000000000000602082015250565b7f45524332303a206275726e2066726f6d20746865207a65726f2061646472657360008201527f7300000000000000000000000000000000000000000000000000000000000000602082015250565b7f45524332303a207472616e736665722066726f6d20746865207a65726f20616460008201527f6472657373000000000000000000000000000000000000000000000000000000602082015250565b7f45524332303a20617070726f76652066726f6d20746865207a65726f2061646460008201527f7265737300000000000000000000000000000000000000000000000000000000602082015250565b7f45524332303a2064656372656173656420616c6c6f77616e63652062656c6f7760008201527f207a65726f000000000000000000000000000000000000000000000000000000602082015250565b611cf581611835565b8114611d0057600080fd5b50565b611d0c81611873565b8114611d1757600080fd5b5056fea2646970667358221220e85c77398418e054451aa0b8442f5fae7e5dc864682afec582d0c8f7afe0c83064736f6c63430008040033",
  "linkReferences": {},
  "deployedLinkReferences": {}
}